:100000000C9434000C9446000C9446000C9446006A
:100010000C9446000C9446000C94AA000C944600E4
:100020000C9446000C9446000C9446000C94460038
:100030000C9446000C9446000C9446000C94460028
:100040000C9446000C9446000C9446000C94460018
:100050000C9446000C9446000C9446000C94460008
:100060000C9446000C94460011241FBECFEFD8E03C
:10007000DEBFCDBF11E0A0E0B1E001C01D92AC3009
:10008000B107E1F70E9414010C9428010C940000C0
:10009000F894E0E6F0E088E1808385E4808378945A
:1000A00083B7817F846083BF1092000110920101A9
:1000B00010920201109203010895EAE7F0E08081B6
:1000C0008F77808380B7806880BFE4E6F0E080812E
:1000D0008093070184B180930B0187B1809308015D
:1000E0008AB18093060185B18093090188B180931C
:1000F00005018BB180930A018FEF808384B915B815
:1001000087B918B88AB91BB8089580910701809300
:10011000640080910B0184B98091080187B98091B6
:1001200006018AB98091090185B98091050188B9D4
:1001300080910A018BB9089583B7816083BF85B729
:10014000806685BF8F7D85BF7894889583B78E7FC5
:1001500083BF08951F920F920FB60F9211248F93B1
:100160009F93AF93BF93EF93FF93E0E6F0E080811E
:10017000806480838091000190910101A09102012F
:10018000B09103010196A11DB11D809300019093D0
:100190000101A0930201B0930301FF91EF91BF9180
:1001A000AF919F918F910F900FBE0F901F90189558
:1001B000AF92BF92CF92DF92EF92FF920F931F9375
:1001C0005B016C0180910401882329F40E9448009E
:1001D00081E0809304010E945D00E0900001F090B6
:1001E00001010091020110910301EA0CFB1C0C1D9E
:1001F0001D1D02C00E949C00809100019091010190
:10020000A0910201B09103018E159F05A007B107CF
:1002100088F30E9485001F910F91FF90EF90DF906F
:10022000CF90BF90AF900895CF93DF933D9AC8ECE5
:10023000D0E06AE070E080E090E00E94D800459A4B
:1002400080E197E2FE013197F1F70197D9F7F1CFFD
:04025000F894FFCF50
:00000001FF
